{
  "_format": "hh-sol-artifact-1",
  "contractName": "MarketSentiment",
  "sourceName": "contracts/marketSentiment.sol",
  "abi": [
    {
      "inputs": [],
      "stateMutability": "nonpayable",
      "type": "constructor"
    },
    {
      "anonymous": false,
      "inputs": [
        {
          "indexed": false,
          "internalType": "string",
          "name": "_tickerName",
          "type": "string"
        },
        {
          "indexed": false,
          "internalType": "uint256",
          "name": "_votesOK",
          "type": "uint256"
        },
        {
          "indexed": false,
          "internalType": "uint256",
          "name": "_votesNOK",
          "type": "uint256"
        },
        {
          "indexed": false,
          "internalType": "address",
          "name": "voter",
          "type": "address"
        }
      ],
      "name": "_tickerUpdated",
      "type": "event"
    },
    {
      "inputs": [
        {
          "internalType": "string",
          "name": "",
          "type": "string"
        }
      ],
      "name": "_existingTickers",
      "outputs": [
        {
          "internalType": "uint256",
          "name": "",
          "type": "uint256"
        }
      ],
      "stateMutability": "view",
      "type": "function"
    },
    {
      "inputs": [
        {
          "internalType": "string",
          "name": "",
          "type": "string"
        }
      ],
      "name": "_tickersList",
      "outputs": [
        {
          "internalType": "uint256",
          "name": "_votesOK",
          "type": "uint256"
        },
        {
          "internalType": "uint256",
          "name": "_votesNOK",
          "type": "uint256"
        }
      ],
      "stateMutability": "view",
      "type": "function"
    },
    {
      "inputs": [
        {
          "internalType": "string",
          "name": "_tickerName",
          "type": "string"
        }
      ],
      "name": "addTicker",
      "outputs": [],
      "stateMutability": "nonpayable",
      "type": "function"
    },
    {
      "inputs": [
        {
          "internalType": "string",
          "name": "_tickerName",
          "type": "string"
        }
      ],
      "name": "countVotes",
      "outputs": [
        {
          "internalType": "uint256",
          "name": "_votesFor",
          "type": "uint256"
        },
        {
          "internalType": "uint256",
          "name": "_votesAgainst",
          "type": "uint256"
        },
        {
          "internalType": "uint256",
          "name": "_totalVotes",
          "type": "uint256"
        }
      ],
      "stateMutability": "view",
      "type": "function"
    },
    {
      "inputs": [
        {
          "internalType": "string",
          "name": "_tickerName",
          "type": "string"
        },
        {
          "internalType": "bool",
          "name": "_vote",
          "type": "bool"
        }
      ],
      "name": "voteTicker",
      "outputs": [],
      "stateMutability": "nonpayable",
      "type": "function"
    }
  ],
  "bytecode": "0x608060405234801561001057600080fd5b50336000806101000a81548173ffffffffffffffffffffffffffffffffffffffff021916908373ffffffffffffffffffffffffffffffffffffffff160217905550610cec806100606000396000f3fe608060405234801561001057600080fd5b50600436106100575760003560e01c8063144777d71461005c5780635f6449ad1461008e5780637c4ac71b146100aa5780637d0c91e5146100db578063eb58e6811461010b575b600080fd5b61007660048036038101906100719190610687565b610127565b60405161008593929190610967565b60405180910390f35b6100a860048036038101906100a39190610687565b6101e9565b005b6100c460048036038101906100bf9190610687565b610335565b6040516100d292919061093e565b60405180910390f35b6100f560048036038101906100f09190610687565b61036f565b6040516101029190610923565b60405180910390f35b610125600480360381019061012091906106d0565b61039d565b005b60008060006001808560405161013d9190610840565b9081526020016040518091039020541461018c576040517f08c379a0000000000000000000000000000000000000000000000000000000008152600401610183906108a3565b60405180910390fd5b60028460405161019c9190610840565b90815260200160405180910390206000015492506002846040516101c09190610840565b908152602001604051809103902060010154915081836101e09190610a1b565b90509193909250565b60008054906101000a900473ffffffffffffffffffffffffffffffffffffffff1673ffffffffffffffffffffffffffffffffffffffff163373ffffffffffffffffffffffffffffffffffffffff1614610277576040517f08c379a000000000000000000000000000000000000000000000000000000000815260040161026e906108c3565b60405180910390fd5b600180826040516102889190610840565b90815260200160405180910390205414156102d8576040517f08c379a00000000000000000000000000000000000000000000000000000000081526004016102cf906108e3565b60405180910390fd5b60006002826040516102ea9190610840565b9081526020016040518091039020905060008160010181905550600081600001819055506001808360405161031f9190610840565b9081526020016040518091039020819055505050565b6002818051602081018201805184825260208301602085012081835280955050505050506000915090508060000154908060010154905082565b6001818051602081018201805184825260208301602085012081835280955050505050506000915090505481565b600015156002836040516103b19190610840565b908152602001604051809103902060020160003373ffffffffffffffffffffffffffffffffffffffff1673ffffffffffffffffffffffffffffffffffffffff16815260200190815260200160002060009054906101000a900460ff1615151461044f576040517f08c379a000000000000000000000000000000000000000000000000000000000815260040161044690610903565b60405180910390fd5b6001151581151514156104b457600160028360405161046e9190610840565b90815260200160405180910390206000015461048a9190610a1b565b60028360405161049a9190610840565b908152602001604051809103902060000181905550610508565b60016002836040516104c69190610840565b9081526020016040518091039020600101546104e29190610a1b565b6002836040516104f29190610840565b9081526020016040518091039020600101819055505b600160028360405161051a9190610840565b908152602001604051809103902060020160003373ffffffffffffffffffffffffffffffffffffffff1673ffffffffffffffffffffffffffffffffffffffff16815260200190815260200160002060006101000a81548160ff0219169083151502179055507f0cd9c79508c77ff599c28602f3f663536f24920e8ca9a7cfc392ffd11dc8e0b5826002846040516105b19190610840565b9081526020016040518091039020600001546002856040516105d39190610840565b908152602001604051809103902060010154336040516105f69493929190610857565b60405180910390a15050565b6000610615610610846109c3565b61099e565b90508281526020810184848401111561063157610630610b8f565b5b61063c848285610ab9565b509392505050565b60008135905061065381610c9f565b92915050565b600082601f83011261066e5761066d610b8a565b5b813561067e848260208601610602565b91505092915050565b60006020828403121561069d5761069c610b99565b5b600082013567ffffffffffffffff8111156106bb576106ba610b94565b5b6106c784828501610659565b91505092915050565b600080604083850312156106e7576106e6610b99565b5b600083013567ffffffffffffffff81111561070557610704610b94565b5b61071185828601610659565b925050602061072285828601610644565b9150509250929050565b61073581610a71565b82525050565b6000610746826109f4565b61075081856109ff565b9350610760818560208601610ac8565b61076981610b9e565b840191505092915050565b600061077f826109f4565b6107898185610a10565b9350610799818560208601610ac8565b80840191505092915050565b60006107b26017836109ff565b91506107bd82610baf565b602082019050919050565b60006107d56027836109ff565b91506107e082610bd8565b604082019050919050565b60006107f8601a836109ff565b915061080382610c27565b602082019050919050565b600061081b6021836109ff565b915061082682610c50565b604082019050919050565b61083a81610aaf565b82525050565b600061084c8284610774565b915081905092915050565b60006080820190508181036000830152610871818761073b565b90506108806020830186610831565b61088d6040830185610831565b61089a606083018461072c565b95945050505050565b600060208201905081810360008301526108bc816107a5565b9050919050565b600060208201905081810360008301526108dc816107c8565b9050919050565b600060208201905081810360008301526108fc816107eb565b9050919050565b6000602082019050818103600083015261091c8161080e565b9050919050565b60006020820190506109386000830184610831565b92915050565b60006040820190506109536000830185610831565b6109606020830184610831565b9392505050565b600060608201905061097c6000830186610831565b6109896020830185610831565b6109966040830184610831565b949350505050565b60006109a86109b9565b90506109b48282610afb565b919050565b6000604051905090565b600067ffffffffffffffff8211156109de576109dd610b5b565b5b6109e782610b9e565b9050602081019050919050565b600081519050919050565b600082825260208201905092915050565b600081905092915050565b6000610a2682610aaf565b9150610a3183610aaf565b9250827fffffffffffffffffffffffffffffffffffffffffffffffffffffffffffffffff03821115610a6657610a65610b2c565b5b828201905092915050565b6000610a7c82610a8f565b9050919050565b60008115159050919050565b600073ffffffffffffffffffffffffffffffffffffffff82169050919050565b6000819050919050565b82818337600083830152505050565b60005b83811015610ae6578082015181840152602081019050610acb565b83811115610af5576000848401525b50505050565b610b0482610b9e565b810181811067ffffffffffffffff82111715610b2357610b22610b5b565b5b80604052505050565b7f4e487b7100000000000000000000000000000000000000000000000000000000600052601160045260246000fd5b7f4e487b7100000000000000000000000000000000000000000000000000000000600052604160045260246000fd5b600080fd5b600080fd5b600080fd5b600080fd5b6000601f19601f8301169050919050565b7f546865207469636b657220646f65736e74206578697374000000000000000000600082015250565b7f4f6e6c7920746865206f776e65722063616e206578637574652074686973206660008201527f756e6374696f6e00000000000000000000000000000000000000000000000000602082015250565b7f54686973207469636b657220616c726561647920657869737473000000000000600082015250565b7f596f75206861766520616c726561647920766f746564207468697320746f6b6560008201527f6e00000000000000000000000000000000000000000000000000000000000000602082015250565b610ca881610a83565b8114610cb357600080fd5b5056fea2646970667358221220b3e512157545f4d79ce4a861c8a1b6bf40081395b5a86ee48b686d8fa43ed11a64736f6c63430008070033",
  "linkReferences": {},
  "deployedLinkReferences": {}
}